{
  "contractName": "Contract2",
  "abi": [
    {
      "constant": true,
      "inputs": [],
      "name": "_data",
      "outputs": [
        {
          "name": "",
          "type": "int256"
        }
      ],
      "payable": false,
      "stateMutability": "view",
      "type": "function"
    },
    {
      "inputs": [
        {
          "name": "_contract1",
          "type": "address"
        }
      ],
      "payable": false,
      "stateMutability": "nonpayable",
      "type": "constructor"
    },
    {
      "constant": false,
      "inputs": [
        {
          "name": "number",
          "type": "int256"
        }
      ],
      "name": "SetData",
      "outputs": [],
      "payable": false,
      "stateMutability": "nonpayable",
      "type": "function"
    },
    {
      "constant": true,
      "inputs": [],
      "name": "getCurrentValue",
      "outputs": [
        {
          "name": "",
          "type": "int256"
        }
      ],
      "payable": false,
      "stateMutability": "view",
      "type": "function"
    }
  ],
  "bytecode": "0x608060405234801561001057600080fd5b5060405160208061027883398101806040528101908080519060200190929190505050806000806101000a81548173ffffffffffffffffffffffffffffffffffffffff021916908373ffffffffffffffffffffffffffffffffffffffff160217905550506101f5806100836000396000f300608060405260043610610057576000357c0100000000000000000000000000000000000000000000000000000000900463ffffffff1680630f76c1141461005c57806336b98ad51461008757806368beab3f146100b4575b600080fd5b34801561006857600080fd5b506100716100df565b6040518082815260200191505060405180910390f35b34801561009357600080fd5b506100b2600480360381019080803590602001909291905050506100e9565b005b3480156100c057600080fd5b506100c96101c3565b6040518082815260200191505060405180910390f35b6000600154905090565b60008060009054906101000a900473ffffffffffffffffffffffffffffffffffffffff1690508073ffffffffffffffffffffffffffffffffffffffff16636f18a95f836040518263ffffffff167c010000000000000000000000000000000000000000000000000000000002815260040180828152602001915050602060405180830381600087803b15801561017e57600080fd5b505af1158015610192573d6000803e3d6000fd5b505050506040513d60208110156101a857600080fd5b81019080805190602001909291905050506001819055505050565b600154815600a165627a7a72305820652fac50242675d8b1eda881c3c59a19cc9783df7866a4661252909a1d8a55f80029",
  "source": "pragma solidity ^0.4.17;\n\nimport \"./Contract1.sol\";\n\ncontract Contract2 \n{\n\n\taddress contract1Address;\t\n\tint public _data;\n\t\n\tconstructor(address _contract1) public {\n\t\tcontract1Address = _contract1;\n\t}\n\n\tfunction SetData(int number) public {\n\t\tContract1 con = Contract1(contract1Address);\n\t\t_data = con.GetDouble(number);\n\t}\n  \t\n\tfunction getCurrentValue() view public returns (int)\n    {\n       return _data;\n    }\n\t\n}\n",
  "sourcePath": "F:\\Projects\\git\\eth-contracts\\contracts\\Contract2.sol",
  "compiler": {
    "name": "solc",
    "version": "0.4.24+commit.e67f0147.Emscripten.clang"
  },
  "schemaVersion": "2.0.1",
  "updatedAt": "2018-10-03T11:10:16.113Z"
}