{
  "contractName": "Contract1",
  "abi": [
    {
      "constant": true,
      "inputs": [
        {
          "name": "_data",
          "type": "int256"
        }
      ],
      "name": "GetDouble",
      "outputs": [
        {
          "name": "_output",
          "type": "int256"
        }
      ],
      "payable": false,
      "stateMutability": "pure",
      "type": "function"
    }
  ],
  "bytecode": "0x608060405234801561001057600080fd5b5060bb8061001f6000396000f300608060405260043610603f576000357c0100000000000000000000000000000000000000000000000000000000900463ffffffff1680636f18a95f146044575b600080fd5b348015604f57600080fd5b50606c600480360381019080803590602001909291905050506082565b6040518082815260200191505060405180910390f35b60006002820290509190505600a165627a7a72305820f07a10a2662f0f886d16810dae82b33ecc693c1e7b5a5fb058295e82ade2baef0029",
  "source": "pragma solidity ^0.4.17;\n\ncontract Contract1\n{\n\n\tfunction GetDouble(int _data) pure public returns (int _output) \n\t{\n\t\treturn _data * 2;\n\t}\t\n\n}",
  "sourcePath": "F:\\Projects\\git\\eth-contracts\\contracts\\Contract1.sol",
  "compiler": {
    "name": "solc",
    "version": "0.4.24+commit.e67f0147.Emscripten.clang"
  },
  "schemaVersion": "2.0.1",
  "updatedAt": "2018-10-03T11:10:16.114Z"
}