{
  "contractName": "SimpleTest",
  "abi": [
    {
      "constant": true,
      "inputs": [],
      "name": "currentInt",
      "outputs": [
        {
          "name": "",
          "type": "uint8"
        }
      ],
      "payable": false,
      "stateMutability": "view",
      "type": "function"
    },
    {
      "constant": true,
      "inputs": [],
      "name": "currentInt2",
      "outputs": [
        {
          "name": "",
          "type": "uint8"
        }
      ],
      "payable": false,
      "stateMutability": "view",
      "type": "function"
    },
    {
      "constant": true,
      "inputs": [],
      "name": "currentString",
      "outputs": [
        {
          "name": "",
          "type": "string"
        }
      ],
      "payable": false,
      "stateMutability": "view",
      "type": "function"
    },
    {
      "inputs": [
        {
          "name": "cs",
          "type": "string"
        },
        {
          "name": "ci",
          "type": "uint8"
        }
      ],
      "payable": false,
      "stateMutability": "nonpayable",
      "type": "constructor"
    },
    {
      "constant": false,
      "inputs": [
        {
          "name": "cs",
          "type": "string"
        },
        {
          "name": "ci",
          "type": "uint8"
        }
      ],
      "name": "setCurrentData",
      "outputs": [],
      "payable": false,
      "stateMutability": "nonpayable",
      "type": "function"
    },
    {
      "constant": true,
      "inputs": [],
      "name": "getCurrentStringData",
      "outputs": [
        {
          "name": "",
          "type": "string"
        }
      ],
      "payable": false,
      "stateMutability": "view",
      "type": "function"
    },
    {
      "constant": true,
      "inputs": [],
      "name": "getCurrentIntData",
      "outputs": [
        {
          "name": "",
          "type": "uint8"
        }
      ],
      "payable": false,
      "stateMutability": "view",
      "type": "function"
    }
  ],
  "bytecode": "0x608060405234801561001057600080fd5b5060405161065638038061065683398101806040528101908080518201929190602001805190602001909291905050508160009080519060200190610056929190610079565b5080600160006101000a81548160ff021916908360ff160217905550505061011e565b828054600181600116156101000203166002900490600052602060002090601f016020900481019282601f106100ba57805160ff19168380011785556100e8565b828001600101855582156100e8579182015b828111156100e75782518255916020019190600101906100cc565b5b5090506100f591906100f9565b5090565b61011b91905b808211156101175760008160009055506001016100ff565b5090565b90565b6105298061012d6000396000f300608060405260043610610078576000357c0100000000000000000000000000000000000000000000000000000000900463ffffffff16806303fc355e1461007d5780630875f5131461010d5780633713257c1461013e5780636416dea61461016f5780636c8abe9d146101e5578063e7ae844614610216575b600080fd5b34801561008957600080fd5b506100926102a6565b6040518080602001828103825283818151815260200191508051906020019080838360005b838110156100d25780820151818401526020810190506100b7565b50505050905090810190601f1680156100ff5780820380516001836020036101000a031916815260200191505b509250505060405180910390f35b34801561011957600080fd5b50610122610348565b604051808260ff1660ff16815260200191505060405180910390f35b34801561014a57600080fd5b5061015361035b565b604051808260ff1660ff16815260200191505060405180910390f35b34801561017b57600080fd5b506101e3600480360381019080803590602001908201803590602001908080601f0160208091040260200160405190810160405280939291908181526020018383808284378201915050505050509192919290803560ff16906020019092919050505061036d565b005b3480156101f157600080fd5b506101fa6103a3565b604051808260ff1660ff16815260200191505060405180910390f35b34801561022257600080fd5b5061022b6103ba565b6040518080602001828103825283818151815260200191508051906020019080838360005b8381101561026b578082015181840152602081019050610250565b50505050905090810190601f1680156102985780820380516001836020036101000a031916815260200191505b509250505060405180910390f35b606060008054600181600116156101000203166002900480601f01602080910402602001604051908101604052809291908181526020018280546001816001161561010002031660029004801561033e5780601f106103135761010080835404028352916020019161033e565b820191906000526020600020905b81548152906001019060200180831161032157829003601f168201915b5050505050905090565b600160009054906101000a900460ff1681565b6001809054906101000a900460ff1681565b8160009080519060200190610383929190610458565b5080600160006101000a81548160ff021916908360ff1602179055505050565b6000600160009054906101000a900460ff16905090565b60008054600181600116156101000203166002900480601f0160208091040260200160405190810160405280929190818152602001828054600181600116156101000203166002900480156104505780601f1061042557610100808354040283529160200191610450565b820191906000526020600020905b81548152906001019060200180831161043357829003601f168201915b505050505081565b828054600181600116156101000203166002900490600052602060002090601f016020900481019282601f1061049957805160ff19168380011785556104c7565b828001600101855582156104c7579182015b828111156104c65782518255916020019190600101906104ab565b5b5090506104d491906104d8565b5090565b6104fa91905b808211156104f65760008160009055506001016104de565b5090565b905600a165627a7a723058204c567c3b40b6ed00189f32668153b08db837d9379cf7bd01f508a5783b791a8e0029",
  "source": "pragma solidity ^0.4.18;\n\ncontract SimpleTest {\n    \n  string public currentString;\n  uint8 public currentInt;\n  uint8 public currentInt2;\n\n  constructor(string cs, uint8 ci) public \n  {\n    currentString = cs;\n    currentInt = ci;\n  }\n\n\n  function setCurrentData(string cs, uint8 ci) public \n  {\n    currentString = cs;\n    currentInt = ci;\n  }\n\n\n  function getCurrentStringData() view public returns (string)\n  {\n     return currentString;\n  }\n  \n  \n  function getCurrentIntData() view public returns (uint8)\n  {\n     return currentInt;\n  }\n  \n}\n",
  "sourcePath": "F:\\Projects\\git\\eth-contracts\\contracts\\SimpleTest.sol",
  "compiler": {
    "name": "solc",
    "version": "0.4.24+commit.e67f0147.Emscripten.clang"
  },
  "schemaVersion": "2.0.1",
  "updatedAt": "2018-10-03T11:10:15.733Z"
}