{
  "contractName": "TokenSaleTest",
  "abi": [
    {
      "constant": true,
      "inputs": [],
      "name": "rate",
      "outputs": [
        {
          "name": "",
          "type": "uint256"
        }
      ],
      "payable": false,
      "stateMutability": "view",
      "type": "function"
    },
    {
      "constant": true,
      "inputs": [],
      "name": "weiRaised",
      "outputs": [
        {
          "name": "",
          "type": "uint256"
        }
      ],
      "payable": false,
      "stateMutability": "view",
      "type": "function"
    },
    {
      "constant": true,
      "inputs": [],
      "name": "wallet",
      "outputs": [
        {
          "name": "",
          "type": "address"
        }
      ],
      "payable": false,
      "stateMutability": "view",
      "type": "function"
    },
    {
      "constant": false,
      "inputs": [],
      "name": "renounceOwnership",
      "outputs": [],
      "payable": false,
      "stateMutability": "nonpayable",
      "type": "function"
    },
    {
      "constant": true,
      "inputs": [],
      "name": "owner",
      "outputs": [
        {
          "name": "",
          "type": "address"
        }
      ],
      "payable": false,
      "stateMutability": "view",
      "type": "function"
    },
    {
      "constant": false,
      "inputs": [
        {
          "name": "_newOwner",
          "type": "address"
        }
      ],
      "name": "transferOwnership",
      "outputs": [],
      "payable": false,
      "stateMutability": "nonpayable",
      "type": "function"
    },
    {
      "constant": true,
      "inputs": [],
      "name": "token",
      "outputs": [
        {
          "name": "",
          "type": "address"
        }
      ],
      "payable": false,
      "stateMutability": "view",
      "type": "function"
    },
    {
      "inputs": [
        {
          "name": "_rate",
          "type": "uint256"
        },
        {
          "name": "_wallet",
          "type": "address"
        },
        {
          "name": "_token",
          "type": "address"
        }
      ],
      "payable": false,
      "stateMutability": "nonpayable",
      "type": "constructor"
    },
    {
      "payable": true,
      "stateMutability": "payable",
      "type": "fallback"
    },
    {
      "anonymous": false,
      "inputs": [
        {
          "indexed": true,
          "name": "purchaser",
          "type": "address"
        },
        {
          "indexed": true,
          "name": "beneficiary",
          "type": "address"
        },
        {
          "indexed": false,
          "name": "value",
          "type": "uint256"
        },
        {
          "indexed": false,
          "name": "amount",
          "type": "uint256"
        }
      ],
      "name": "TokenPurchase",
      "type": "event"
    },
    {
      "anonymous": false,
      "inputs": [
        {
          "indexed": true,
          "name": "previousOwner",
          "type": "address"
        }
      ],
      "name": "OwnershipRenounced",
      "type": "event"
    },
    {
      "anonymous": false,
      "inputs": [
        {
          "indexed": true,
          "name": "previousOwner",
          "type": "address"
        },
        {
          "indexed": true,
          "name": "newOwner",
          "type": "address"
        }
      ],
      "name": "OwnershipTransferred",
      "type": "event"
    },
    {
      "constant": false,
      "inputs": [
        {
          "name": "_beneficiary",
          "type": "address"
        }
      ],
      "name": "buyTokens",
      "outputs": [],
      "payable": true,
      "stateMutability": "payable",
      "type": "function"
    }
  ],
  "bytecode": "0x608060405234801561001057600080fd5b50604051606080610a67833981018060405281019080805190602001909291908051906020019092919080519060200190929190505050336000806101000a81548173ffffffffffffffffffffffffffffffffffffffff021916908373ffffffffffffffffffffffffffffffffffffffff16021790555060008311151561009657600080fd5b600073ffffffffffffffffffffffffffffffffffffffff168273ffffffffffffffffffffffffffffffffffffffff16141515156100d257600080fd5b600073ffffffffffffffffffffffffffffffffffffffff168173ffffffffffffffffffffffffffffffffffffffff161415151561010e57600080fd5b8260038190555081600260006101000a81548173ffffffffffffffffffffffffffffffffffffffff021916908373ffffffffffffffffffffffffffffffffffffffff16021790555080600160006101000a81548173ffffffffffffffffffffffffffffffffffffffff021916908373ffffffffffffffffffffffffffffffffffffffff1602179055505050506108be806101a96000396000f30060806040526004361061008e576000357c0100000000000000000000000000000000000000000000000000000000900463ffffffff1680632c4e722e146100995780634042b66f146100c4578063521eb273146100ef578063715018a6146101465780638da5cb5b1461015d578063ec8ac4d8146101b4578063f2fde38b146101ea578063fc0c546a1461022d575b61009733610284565b005b3480156100a557600080fd5b506100ae610352565b6040518082815260200191505060405180910390f35b3480156100d057600080fd5b506100d9610358565b6040518082815260200191505060405180910390f35b3480156100fb57600080fd5b5061010461035e565b604051808273ffffffffffffffffffffffffffffffffffffffff1673ffffffffffffffffffffffffffffffffffffffff16815260200191505060405180910390f35b34801561015257600080fd5b5061015b610384565b005b34801561016957600080fd5b50610172610486565b604051808273ffffffffffffffffffffffffffffffffffffffff1673ffffffffffffffffffffffffffffffffffffffff16815260200191505060405180910390f35b6101e8600480360381019080803573ffffffffffffffffffffffffffffffffffffffff169060200190929190505050610284565b005b3480156101f657600080fd5b5061022b600480360381019080803573ffffffffffffffffffffffffffffffffffffffff1690602001909291905050506104ab565b005b34801561023957600080fd5b50610242610512565b604051808273ffffffffffffffffffffffffffffffffffffffff1673ffffffffffffffffffffffffffffffffffffffff16815260200191505060405180910390f35b6000803491506102948383610538565b61029d82610588565b90506102b4826004546105a690919063ffffffff16565b6004819055506102c483826105c2565b8273ffffffffffffffffffffffffffffffffffffffff163373ffffffffffffffffffffffffffffffffffffffff167f623b3804fa71d67900d064613da8f94b9617215ee90799290593e1745087ad188484604051808381526020018281526020019250505060405180910390a361033b83836105d0565b6103436105d4565b61034d838361063f565b505050565b60035481565b60045481565b600260009054906101000a900473ffffffffffffffffffffffffffffffffffffffff1681565b6000809054906101000a900473ffffffffffffffffffffffffffffffffffffffff1673ffffffffffffffffffffffffffffffffffffffff163373ffffffffffffffffffffffffffffffffffffffff161415156103df57600080fd5b6000809054906101000a900473ffffffffffffffffffffffffffffffffffffffff1673ffffffffffffffffffffffffffffffffffffffff167ff8df31144d9c2f0f6b59d69b8b98abd5459d07f2742c4df920b25aae33c6482060405160405180910390a260008060006101000a81548173ffffffffffffffffffffffffffffffffffffffff021916908373ffffffffffffffffffffffffffffffffffffffff160217905550565b6000809054906101000a900473ffffffffffffffffffffffffffffffffffffffff1681565b6000809054906101000a900473ffffffffffffffffffffffffffffffffffffffff1673ffffffffffffffffffffffffffffffffffffffff163373ffffffffffffffffffffffffffffffffffffffff1614151561050657600080fd5b61050f81610643565b50565b600160009054906101000a900473ffffffffffffffffffffffffffffffffffffffff1681565b600073ffffffffffffffffffffffffffffffffffffffff168273ffffffffffffffffffffffffffffffffffffffff161415151561057457600080fd5b6000811415151561058457600080fd5b5050565b600061059f6003548361073d90919063ffffffff16565b9050919050565b600081830190508281101515156105b957fe5b80905092915050565b6105cc8282610753565b5050565b5050565b600260009054906101000a900473ffffffffffffffffffffffffffffffffffffffff1673ffffffffffffffffffffffffffffffffffffffff166108fc349081150290604051600060405180830381858888f1935050505015801561063c573d6000803e3d6000fd5b50565b5050565b600073ffffffffffffffffffffffffffffffffffffffff168173ffffffffffffffffffffffffffffffffffffffff161415151561067f57600080fd5b8073ffffffffffffffffffffffffffffffffffffffff166000809054906101000a900473ffffffffffffffffffffffffffffffffffffffff1673ffffffffffffffffffffffffffffffffffffffff167f8be0079c531659141344cd1fd0a4f28419497f9722a3daafe3b4186f6b6457e060405160405180910390a3806000806101000a81548173ffffffffffffffffffffffffffffffffffffffff021916908373ffffffffffffffffffffffffffffffffffffffff16021790555050565b6000818381151561074a57fe5b04905092915050565b6107a08282600160009054906101000a900473ffffffffffffffffffffffffffffffffffffffff1673ffffffffffffffffffffffffffffffffffffffff166107a49092919063ffffffff16565b5050565b8273ffffffffffffffffffffffffffffffffffffffff1663a9059cbb83836040518363ffffffff167c0100000000000000000000000000000000000000000000000000000000028152600401808373ffffffffffffffffffffffffffffffffffffffff1673ffffffffffffffffffffffffffffffffffffffff16815260200182815260200192505050602060405180830381600087803b15801561084757600080fd5b505af115801561085b573d6000803e3d6000fd5b505050506040513d602081101561087157600080fd5b8101908080519060200190929190505050151561088d57600080fd5b5050505600a165627a7a7230582066325ddc5dad7a2f20b939876b6a8babc37e1e2ad90c8b52bc8729c72f6be7670029",
  "source": "pragma solidity ^0.4.22;\n\nimport './TokenTest.sol';\nimport \"../node_modules/openzeppelin-solidity/contracts/math/SafeMath.sol\";\nimport \"../node_modules/openzeppelin-solidity/contracts/token/ERC20/SafeERC20.sol\";\nimport '../node_modules/openzeppelin-solidity/contracts/ownership/Ownable.sol';\n\n\ncontract TokenSaleTest is Ownable {\n  using SafeMath for uint256;\n  using SafeERC20 for TokenTest;\n  \n  TokenTest public token;\n  address public wallet;\n  uint256 public rate;\n\n\n  // Amount of wei raised\n  uint256 public weiRaised;\n\n  event TokenPurchase(\n    address indexed purchaser,\n    address indexed beneficiary,\n    uint256 value,\n    uint256 amount\n  );\n\n\n\n  constructor(uint256 _rate, address _wallet, TokenTest _token) public {\n      require(_rate > 0);\n      require(_wallet != address(0));\n      require(_token != address(0));\n\n      rate = _rate;\n      wallet = _wallet;\n      token = _token;\n  }\n\n\n  function () external payable {\n       buyTokens(msg.sender);\n  }\n\n\n  function buyTokens(address _beneficiary) public payable \n  {\n       uint256 weiAmount = msg.value;\n       _preValidatePurchase(_beneficiary, weiAmount);\n\n       // calculate token amount to be created\t   \n       uint256 tokens = _getTokenAmount(weiAmount);\n\n\t   // update state\n       weiRaised = weiRaised.add(weiAmount);\n\n\t   _processPurchase(_beneficiary, tokens);\n       emit TokenPurchase(\n         msg.sender,\n         _beneficiary,\n         weiAmount,\n         tokens\n       );\n\t   \n\t   _updatePurchasingState(_beneficiary, weiAmount);\n\t   \n       _forwardFunds();\n       _postValidatePurchase(_beneficiary, weiAmount);\t   \n  }\n\n\n  function _preValidatePurchase(address _beneficiary, uint256 _weiAmount) pure internal\n  {\n      require(_beneficiary != address(0));\n      require(_weiAmount != 0);\n  }\n  \n  function _postValidatePurchase( address _beneficiary, uint256 _weiAmount ) internal\n  {\n     // optional override\n  }  \n\n\n  function _processPurchase(address _beneficiary, uint256 _tokenAmount) internal\n  {\n    _deliverTokens(_beneficiary, _tokenAmount);\n  }\n  \n  \n  function _deliverTokens( address _beneficiary, uint256 _tokenAmount ) internal\n  {\n    token.safeTransfer(_beneficiary, _tokenAmount);\n  }\n  \n\n  function _updatePurchasingState( address _beneficiary, uint256 _weiAmount )internal\n  {\n    // optional override\n  }  \n  \n\n  function _getTokenAmount(uint256 _weiAmount) internal view returns (uint256)\n  {\n      return _weiAmount.div(rate);\n  }\n\n\n  function _forwardFunds() internal \n  {\n      wallet.transfer(msg.value);\n  }\n\n}\n",
  "sourcePath": "F:\\Projects\\git\\eth-contracts\\contracts\\TokenSaleTest.sol",
  "compiler": {
    "name": "solc",
    "version": "0.4.24+commit.e67f0147.Emscripten.clang"
  },
  "schemaVersion": "2.0.1",
  "updatedAt": "2018-10-03T11:10:16.846Z"
}